:020000040000FA
:1000000008A0FF1F95020000CD020000CF020000F3
:10001000D1020000D3020000D50200000000000061
:10002000000000000000000000000000D7020000F7
:10003000D902000000000000DB020000DD02000029
:10004000DF020000DF020000DF020000DF0200002C
:10005000DF020000DF020000DF020000DF0200001C
:10006000DF020000DF020000DF020000DF0200000C
:10007000DF020000DF020000DF020000DF020000FC
:10028000DFF80CD000F038F800480047B107000054
:1002900008A0FF1F12484FF01F01016011484FF0E6
:1002A0007701016010484FF0770101600F484FF46B
:1002B000885101600B484FF0760101600A484FF009
:1002C000760101600A4880470A480047FEE7FEE7DA
:1002D000FEE7FEE7FEE7FEE7FEE7FEE7FEE7FEE7F6
:1002E00010080540040805400C08054000080540BA
:1002F0008107000081020000064C074D06E0E0681F
:1003000040F0010394E8070098471034AC42F6D35C
:10031000FFF7BAFFFC0700000C08000000BFFEE773
:1003200008B50D49096AC1F302630C490968D9404F
:1003300041F270731944491EB1FBF3F206E00092DA
:1003400000BF00994B1E00930029FAD1011EA0F1B5
:100350000100F4D108BD0000004005400080FF1FEF
:100360000146002009B9C01E09E000220A804A8027
:10037000CA800A820A814A818A81CA818A8070473A
:1003800000B585B06846FFF7EBFF0020ADF8000030
:100390000220ADF802006A460821032000F040F870
:1003A0006A461021032000F03BF86A462021032012
:1003B00000F036F86A464021032000F031F805B01D
:1003C00000BD000000F0040131B100BF4AF201514C
:1003D000024A118000BF00BF70470000FC3B05408F
:1003E00000F0040131B100BF4FF42541024A1180F1
:1003F00000BF00BF70470000FC3B05407047000095
:10040000BFFFDFFFFFFEFFFFFFFFFFFFFFFFFFFF5D
:10041000FFFFFFFFFFFFFFFFFFFFFFFFFFFFFFFFEC
:100420002DE9F05F05460E4614464FF0000B14B957
:100430006FF0020BD9E000BF6D48008800F00100AA
:1004400000B104E04FF480716AA0FFF767FF00BFBE
:1004500000BF4DB1012D07D0022D05D0032D03D0D3
:10046000042D01D0052D00D104E040F2011161A05E
:10047000FFF754FF00BF00BF16B1B0B200B104E0F7
:100480004FF481715BA0FFF749FF00BF00BF2088D8
:1004900010B12088012800D104E040F2031155A0DA
:1004A000FFF73CFF00BF00BF608810B160880228E2
:1004B00000D104E04FF482714EA0FFF72FFF00BF80
:1004C00000BFA08810B1A088042800D104E040F249
:1004D000051148A0FFF722FF00BF00BFE08828B148
:1004E000E088102802D0E088202800D104E04FF4F2
:1004F000837140A0FFF712FF00BF00BF208918B131
:100500002089B0F5804F00D104E040F2071139A0F6
:10051000FFF704FF00BF00BF608910B16089402869
:1005200000D104E04FF4847132A0FFF7F7FE00BF62
:1005300000BFA08918B1A089B0F5007F00D104E008
:1005400040F209112BA0FFF7E9FE00BF00BFE089D0
:1005500018B1E089B0F5805F00D104E04FF48571F7
:1005600024A0FFF7DBFE00BF00BF208A18B1208A5D
:10057000B0F5004F00D104E040F20B111DA0FFF7D1
:10058000CDFE00BF00272DE006F0010028B3208833
:1005900061880843A1880843E188084361890843CA
:1005A000A1890843E1890843218940EA010A45F20B
:1005B0007728208A40EA0A0A48F400480C48001DBF
:1005C00000EB851000EB8709B9F8000020EA08006D
:1005D0000AEA08010843A9F80000761006B903E00A
:1005E000781CC7B2102FCFD300BF5846BDE8F09F8C
:1005F000FC3B05402E2E5C447269766572735C4844
:10060000433332463436305F4C4C5F447269766512
:10061000725C7372635C686333325F6C6C5F6770CB
:10062000696F2E630000000070B504460D4600BFE0
:100630004CB1012C07D0022C05D0032C03D0042C84
:1006400001D0052C00D104E040F26D210BA0FFF792
:1006500065FE00BF00BF15B1A8B200B104E040F2D2
:100660006E2106A0FFF75AFE00BF1148102101FBC2
:10067000040630882843308070BD00002E2E5C4474
:100680007269766572735C48433332463436305F44
:100690004C4C5F4472697665725C7372635C68632C
:1006A00033325F6C6C5F6770696F2E63000000000F
:1006B0000C38054070B52B4D2D6805F001051DB1B6
:1006C000294D2A4E356002E0294D284E3560294DCE
:1006D0002D7805F00700062840D2DFE800F0030877
:1006E0000C11151A214D2D68234E356037E0234D2E
:1006F000214E356033E04FF400451F4E35602EE04B
:100700001E4D1D4E35602AE04FF400451A4E3560EF
:1007100025E0184DDA352D68C5F30822154D263D24
:10072000D5F800512B0F134DDA352D6805F01F0455
:10073000104D263DD5F8005105F080050DB90F4943
:1007400001E00A4D2968651CB1FBF5F5561C75439F
:100750005E1CB5FBF6F5084E356000E000BF00BF3B
:1007600070BD0000840601400024F4000480FF1FD7
:10077000002D3101264005400080FF1F00127A0045
:1007800000B5FFF797FF00200149086000BD000099
:1007900008ED00E002E008C8121F08C1002AFAD1E3
:1007A0007047002001E001C1121F002AFBD17047F1
:1007B0000420FFF707FEFFF7E3FD0420FFF710FE1C
:1007C00000BF08210320FFF72FFF6420FFF7A8FDDB
:1007D00010210320FFF728FF6420FFF7A1FD20214F
:1007E0000320FFF721FF6420FFF79AFD402103203B
:1007F000FFF71AFF6420FFF793FDE2E70C08000003
:0C0800000880FF1F00200000A20700007D
:040000050000028174
:00000001FF
